:100000000C94ED000C9415010C9415010C94150141
:100010000C9415010C9415010C9415010C94150108
:100020000C9415010C9415010C9406080C94750899
:100030000C9415010C9415010C9415010C941501E8
:100040000C9415010C9415010C9415010C941501D8
:100050000C9415010C9415010C9415010C94BC071B
:100060000C9415010C9415010C9415010C941501B8
:100070000C9415010C9415010C9415010C941501A8
:100080000C9415010C9415010C9415010C94150198
:100090000C9415010C9415010C9415010C94150188
:1000A0000C9415010C9415010C941501080B000219
:1000B0000202000009040000010202000005240001
:1000C0001001052401010104240206052406000193
:1000D0000705810310004009040100020A00000026
:1000E00007050202400000070583024000000403E8
:1000F000090412010002EF02014041233680000191
:100100000102030141726475696E6F204C4C43001B
:1001100041726475696E6F204C656F6E6172646FB9
:100120000000000000250028002B002E00310000F8
:10013000000000240027002A002D003000040404E1
:10014000040403040502020202040302020202067E
:10015000060606060604040202020404040802015C
:100160001040804010204080408008020401804000
:1001700020100201108010204040200706050401D5
:1001800000080A0B0C0D0905010904A101850605EB
:100190000919012920150025017501952081020505
:1001A00001A100093009310933093416008026FF06
:1001B0007F751095048102093209351580257F75F8
:1001C0000895028102C00501093909391501250880
:1001D000950275048102C000A70A11241FBECFEF4B
:1001E000DAE0DEBFCDBF11E0A0E0B1E0E0EFFBE27E
:1001F00002C005900D92A43BB107D9F722E0A4EB11
:10020000B1E001C01D92A236B207E1F710E0CDEED9
:10021000D0E004C02197FE010E94EA13CC3ED10732
:10022000C9F70E94350B0C94F6150C940000CF937F
:10023000DF93FC01818190912A02482F490F5527B5
:10024000551F483051059CF5A281B381109709F5DF
:1002500026E232E033832283208120932802809398
:10026000290280912B02820F808320912C02A22FE1
:10027000B0912D028A2F821B8917E8F481813D916C
:10028000C82FD0E0C85CDE4F38838F5F8183F2CF08
:10029000D90118962D913C91199721153105C1F777
:1002A00026E232E019963C932E931897D5CF80E042
:1002B000DF91CF91089581E0FBCFFC018091D101C6
:1002C000882311F13FB7F89482E08093E9002091F0
:1002D000F200822F90E01816190614F481E090E0E5
:1002E000882339F0289844E64093D0014091F100EA
:1002F0004083222339F02091F200211103C02BE624
:100300002093E8003FBF08958FEF9FEF089582315B
:1003100008F08251E82FF0E0E558FE4FE49190910B
:100320007B008E2F880F880F80729F7D892B809392
:100330007B00E770E064E0937C0080917A00806449
:1003400080937A0080917A0086FDFCCF80917800BE
:100350009091790008953FB7F8948091CC019091E5
:10036000CD01A091CE01B091CF0126B5A89B05C0CB
:100370002F3F19F00196A11DB11D3FBFBA2FA92F24
:10038000982F8827BC01CD01620F711D811D911D21
:1003900042E0660F771F881F991F4A95D1F708958D
:1003A0008F929F92AF92BF92CF92DF92EF92FF9285
:1003B0004B015C010E94AB016B017C010E94AB010F
:1003C0006C197D098E099F09683E7340810591056E
:1003D000A8F321E0821A9108A108B10888EEC80E9E
:1003E00083E0D81EE11CF11C81149104A104B10426
:1003F00029F7FF90EF90DF90CF90BF90AF909F9044
:100400008F9008954091C2015091C3012091C00185
:100410003091C10142175307B4F49091E8009570F0
:10042000E1F39091E80092FD19C08093F100809172
:10043000C2019091C30101968F739927892B19F4FA
:100440008EEF8093E8008091C2019091C3010196E4
:100450009093C3018093C20181E0089580E00895E4
:10046000EF92FF920F931F93CF93DF93F82E192FE4
:10047000E62E042F81E0860F880F0E94020283E09F
:100480000E940202CF2DD12FEC0EFD2EF11CCE15B5
:10049000DF05B9F007FF13C0FE0184910E9402023C
:1004A000182F80E00E940202812321968111EFCF54
:1004B000DF91CF911F910F91FF90EF900895888168
:1004C000EDCF81E0F5CFDF92EF92FF920F931F9374
:1004D000CF93DF93D82E8A01EB017B01E40EF51E4A
:1004E000CE15DF0559F0D7FE12C0FE0184910E949F
:1004F000020221968111F4CF0FEF1FEFC801DF91A7
:10050000CF911F910F91FF90EF90DF900895888118
:10051000EECF2FB7F89487708093E9009091E800B0
:10052000892F807295FF04C09091F20080E4891BAE
:100530002FBF08957F928F929F92AF92BF92CF92DA
:10054000DF92EF92FF920F931F93CF93DF93C82E0A
:100550008B017A018091D101811110C08FEF9FEF43
:10056000DF91CF911F910F91FF90EF90DF90CF908F
:10057000BF90AF909F908F907F9008958091C6011B
:1005800080FF05C08091E00082608093E000CE2D66
:10059000DF2DD12C8AEFB82E8C2D8770982E8C2DC4
:1005A0008072882E8C2D8074782E9AE3A92E209745
:1005B00019F4DD2009F452C08C2D0E9489028111AA
:1005C0000AC0BA94BB2051F261E070E080E090E094
:1005D0000E94D001ECCF8C171D0611F00CF08C2F6F
:1005E0009FB7F8949092E9002091E80025FD02C0A1
:1005F0009FBFDDCF282F30E0C21BD30B882029F00E
:100600008150A0F01092F100FBCFF801C7FC0AC0A6
:10061000815050F041914093F100FACF44914093C2
:10062000F10031968150D0F7020F131FDD2021F029
:10063000A092E800D12CDCCF8091E80085FD07C0B6
:10064000A092E800DD24D394209791F2F3CF209775
:1006500079F6772069F2A092E800CACF5D9884E627
:100660008093C501C7017CCF615030F02091F1002B
:10067000FC0120830196F8CF289884E68093D0016E
:1006800008958091B80181110DC082E08093B4017A
:1006900084E08093B5011092B7011092B60181E019
:1006A0008093B80184EB91E008950F931F93CF934B
:1006B000DF931F92CDB7DEB782E0898342E450E03A
:1006C0006CEA70E080E80E9463020E944103DC0152
:1006D00012960D911C910115110589F0D801ED912B
:1006E000FC910280F381E02DBE016F5F7F4FC80156
:1006F000099597FD04C0F80100851185ECCF89812B
:100700000F90DF91CF911F910F910895CF93DF93B9
:10071000EC0180910B01882331F083E00E949A0262
:100720001816190634F081E090E09B838A8380E0FC
:1007300090E0DF91CF910895CF93DF931F92CDB7D3
:10074000DEB76983DC01ED91FC910280F381E02D3D
:1007500041E050E0BE016F5F7F4F09950F90DF9140
:10076000CF91089583E08093E9008091F20088237F
:1007700019F08AE38093E800089583E00E948902DB
:1007800090E00895CF93DF931F92CDB7DEB7FC01C1
:100790008485958597FD08C02FEF3FEF3587248727
:1007A0000F90DF91CF910895CE0101960E945D01D7
:1007B000019719F4898190E0F3CF8FEF9FEFF0CF8D
:1007C0002FB7F8948091D2019091D301A091D401D8
:1007D000B091D5012FBF8093DE019093DF01A093EC
:1007E000E001B093E10186ED91E00E94C20397FF22
:1007F00026C02FB7F8948091D2019091D301A09197
:10080000D401B091D5012FBF4091DE015091DF019D
:100810006091E0017091E101841B950BA60BB70B71
:100820004091DA015091DB016091DC017091DD01B2
:1008300084179507A607B707B0F28FEF9FEF0895CB
:100840000F931F93CF93DF931F92CDB7DEB78C0129
:10085000FC018485958597FF0BC0CE0101960E940F
:100860005D01019771F4898190E0F8019587848793
:10087000F801848595850F90DF91CF911F910F919D
:1008800008958FEF9FEFF1CFFC018485958597FD4B
:100890000BC09FB7F89482E08093E9008091F2004A
:1008A0009FBF90E0019608959FB7F89482E08093EF
:1008B000E9008091F2009FBF90E00895DC01FB0108
:1008C00012962C911297848195812817190641F46C
:1008D00091818081813A31F49D7F81E0913009F0EE
:1008E00080E008958132E1F79B3029F482811F96E0
:1008F0008C9381E008959A3099F7828150968C9379
:10090000F8CFDC01FB0188E4808389E4818384E4FF
:1009100082831D969C911D979F709F5B93831D966C
:100920008D919C9124E0969587952A95E1F78F709B
:100930008F5B848385E00895EF92FF920F931F935E
:10094000CF93DF93FB012081213871F5238122327F
:1009500059F5DC0112964C9124813581421713061A
:1009600019F5EC010B851C85F12CE12C0115110505
:1009700089F0F801448155816281738180E80E9489
:1009800063028F3F980749F0E80EF91ED8010D91D8
:100990001C91ECCF81E08F87C701DF91CF911F9130
:1009A0000F91FF90EF90089590E080E0F6CFCF9305
:1009B000DF93CDB7DEB769970FB6F894DEBF0FBEF1
:1009C000CDBFFC01DB018C918F5F8C939E012D5F6D
:1009D0003F4F8DE0D9011D928A95E9F729E02983DF
:1009E00084E08A8391E09D8383E08E832A8721E2DD
:1009F0002B879C879D879F8722E2288B27E02B8B64
:100A000025E02C8B8E8B20E430E0388F2F8B998F54
:100A100082818B8395858685998B8A8B838180687B
:100A20008D8B49E150E0BE016F5F7F4F80E00E94F7
:100A3000630269960FB6F894DEBF0FBECDBFDF919B
:100A4000CF910895CF92DF92EF92FF921F93CF93B1
:100A5000DF931F92CDB7DEB77B016A018091370229
:100A600081112AC011E010932A0210932B0280E317
:100A700092E090932D0280932C0210922F021092FC
:100A80002E028FE591E09093270280932602109228
:100A900032021092310210923402109233021093FB
:100AA00035021093360281EC809330020E9441039C
:100AB0000E9417011093370286E0898341E050E0DD
:100AC000BE016F5F7F4F809129020E949A0297FDBD
:100AD00007C080912902A601B70180640E949A0292
:100AE0000F90DF91CF911F91FF90EF90DF90CF900B
:100AF0000895FC0101900020E9F73197AF01481BF0
:100B0000590BBC0186ED91E00C9486038F929F9265
:100B1000AF92BF920F931F93CF93DF93CDB7DEB702
:100B2000A1970FB6F894DEBF0FBECDBF19A2423019
:100B300008F44AE08E010F5D1F4F842E912CB12CDA
:100B4000A12CA50194010E949D12E62FB901CA01B2
:100B5000EA30F4F4E05DD801EE938D01232B242BD1
:100B6000252B79F790E080E0109719F0CD010E94D5
:100B70007905A1960FB6F894DEBF0FBECDBFDF9109
:100B8000CF911F910F91BF90AF909F908F9008953C
:100B9000E95CE1CF0C947905CF93DF93682F70E087
:100BA00090E080E04AE00E948605EC018DE691E04D
:100BB0000E9479058C0F9D1FDF91CF910895CF92F0
:100BC000DF92EF92FF92CF93DF936C01990FEE08C3
:100BD000FF08F7FE19C06DE286ED91E00E949C03CC
:100BE000EC0166277727CB016C197D098E099F09D7
:100BF0004AE00E9486058C0F9D1FDF91CF91FF90E8
:100C0000EF90DF90CF9008954AE0C701B601DF91E1
:100C1000CF91FF90EF90DF90CF900C948605CF930B
:100C2000DF930E94DF05EC018DE691E00E947905DB
:100C30008C0F9D1FDF91CF910895CF93DF93EB0130
:100C40000E9426128883CE01DF91CF9108950F93E1
:100C50001F93CF93DF938C01EB010E9426128883B0
:100C6000C80101960E9426128983CE01DF91CF919F
:100C70001F910F910895FC0180819181009711F0DF
:100C80000C94BA1060E070E0CB010895FC0124815F
:100C90003581232B39F421E0FB018081882349F041
:100CA00020E007C0808191810E94E61521E0892B18
:100CB000B9F7822F08950F931F93CF93DF93EC0121
:100CC00088819981009759F02A813B81261737073F
:100CD00030F081E0DF91CF911F910F9108958B014A
:100CE0006F5F7F4F0E941515009759F09983888395
:100CF0001B830A832C813D81232B59F7FC01108231
:100D0000E8CF80E0E7CFCF93DF93EC018881998132
:100D1000009711F00E948C14198218821D821C8287
:100D20001B821A82DF91CF910895CF93DF93EC015C
:100D300070E060E00E945B06811105C0CE01DF918A
:100D4000CF910C9483061D821C826FE671E088812E
:100D50009981DF91CF910C94EF159F92AF92BF9242
:100D6000CF92DF92EF92FF920F931F93CF93DF9377
:100D7000EC016B015A0179012417350720F48B2D02
:100D80005901E42EF82E198218821B821A821D82C4
:100D90001C82CE010E949506D60114960D911C91DD
:100DA000A016B10658F5E016F10608F48701D60141
:100DB000ED91FC911197E00FF11F90801082ED9062
:100DC000FC90EA0CFB1CE114F10471F0F7010190B6
:100DD0000020E9F731975F01AE18BF08B501CE01D9
:100DE0000E945B06811117C0CE010E948306F601A6
:100DF00080819181080F191FD8019C92CE01DF914B
:100E0000CF911F910F91FF90EF90DF90CF90BF9007
:100E1000AF909F900895BD82AC82B701888199817F
:100E20000E94EF15E4CFFC0180819181009711F0C1
:100E30000C948C140895FF920F931F93CF93DF931C
:100E4000EC01F62E08811981C8010E942612F816BD
:100E500021F06F2DC8010E942E12CE01DF91CF919B
:100E60001F910F91FF900895EF92FF920F931F93A0
:100E7000CF93DF9300D0CDB7DEB78C017B019A838F
:100E80008983FB016081CE0101960E941B070F5FE1
:100E90001F4F1A830983F7016181CE0101960E94D9
:100EA0001B07C7010F900F90DF91CF911F910F91FA
:100EB000FF90EF9008958F929F92AF92BF92CF9242
:100EC000DF92EF92FF920F931F93CF93DF9300D0A7
:100ED000CDB7DEB78CE1C82E81E0D82E94E1E92EA3
:100EE00091E0F92E20E1822E21E0922E3CE0A32E0B
:100EF00031E0B32E01E010E0B601C8010E943407D2
:100F0000B701C80102960E943407C80104969A836B
:100F10008983F40161914F01CE0101960E941B0764
:100F2000C80105969A838983F50161915F01CE011D
:100F300001960E941B070A5F1F4FF2E0CF0ED11CE3
:100F400082E0E80EF11C09311105B1F61A8219820E
:100F500066EACE0101960E941B070F900F90DF9169
:100F6000CF911F910F91FF90EF90DF90CF90BF90A6
:100F7000AF909F908F9008951F920F920FB60F928F
:100F800011242F933F938F939F93AF93BF9380919F
:100F9000D2019091D301A091D401B091D5013091AB
:100FA000CB0123E0230F2D3758F50196A11DB11D6C
:100FB0002093CB018093D2019093D301A093D401CD
:100FC000B093D5018091CC019091CD01A091CE013B
:100FD000B091CF010196A11DB11D8093CC019093DA
:100FE000CD01A093CE01B093CF01BF91AF919F915E
:100FF0008F913F912F910F900FBE0F901F901895DA
:1010000026E8230F0296A11DB11DD2CF1F920F9289
:101010000FB60F9211248F939F938091E1009091CE
:10102000E100937F9093E10083FF0FC01092E900ED
:1010300091E09093EB001092EC0092E39093ED001E
:101040001092D10198E09093F00082FF22C093E0CB
:101050009093E9009091F200992319F09AE390930C
:10106000E8009091C501992341F09091C5019150FC
:101070009093C501911101C05D9A9091D00199237F
:1010800041F09091D00191509093D001911101C005
:10109000289A84FF18C08091E2008E7E8160809340
:1010A000E2008091E1008F7E8093E1008091C60193
:1010B0008E7E80618093C6019F918F910F900FBEAD
:1010C0000F901F90189580FFF7CF8091E2008E7EE1
:1010D00080618093E2008091E1008E7E8093E10048
:1010E0008091C6018E7E8160E5CF1F920F920FB670
:1010F0000F921124CF92DF92EF92FF920F931F93E2
:101100002F933F934F935F936F937F938F939F930F
:10111000AF93BF93EF93FF93CF93DF93CDB7DEB73A
:101120006C97DEBFCDBF1092E9008091E80083FF8D
:1011300025C068E0CE0145960E94340382EF80937B
:10114000E8008D8987FF39C09091E80090FFFCCFBF
:10115000982F907609F034C19E894F89588D2F8938
:10116000F88C911131C0803861F58091C70180936E
:10117000F1001092F1008EEF8093E8006C960FB6AC
:10118000F894DEBF0FBECDBFDF91CF91FF91EF91FD
:10119000BF91AF919F918F917F916F915F914F918F
:1011A0003F912F911F910F91FF90EF90DF90CF9083
:1011B0000F900FBE0F901F9018959EEF9093E80030
:1011C000C7CF1092F100D5CF913059F48111D3CF10
:1011D0004130510581F68091C7018D7F8093C70111
:1011E000CACF933049F48111C6CF4130510519F669
:1011F0008091C7018260F2CF953041F48091E80080
:1012000080FFFCCF20682093E300B5CF963009F033
:10121000A9C00B8D1C8D22E01092E9001092C30131
:101220001092C201F2122EC01092C1011092C001A0
:101230000E9455031F8299E09983FA8291E09E8370
:1012400090EA98879AEF99872091C2013091C30163
:10125000275F3F4F3C832B838D831092E9001092D0
:10126000C3011092C2011093C1010093C00149E073
:1012700050E0BE016F5F7F4F80E00E9463020E94DA
:10128000550379CF1093C1010093C0010E9441031F
:10129000DC0112960D911C910115110509F451C143
:1012A000D801ED91FC910480F581E02DBE016B5ECB
:1012B0007F4FC8010995009709F03EC1F8010085EC
:1012C0001185EACFF3E0FF120EC08F89882309F45D
:1012D00040C0823061F440E860E180E191E00E942A
:1012E0003002811148CF81E28093EB0047CF8130FB
:1012F00029F440E86BE084E091E0F1CF833099F786
:101300000E944103DC011296ED90FC908E010F5F6C
:101310001F4F6801E114F10479F0D701ED91FC91C0
:101320000680F781E02DB801C7010995080F111D4E
:10133000F701E084F184EECFD8011C92F601019010
:101340000020E9F73197BF016C197D0940E0C60123
:10135000C6CF6EEE70E0FB01449150E080E80E9441
:10136000630209CF973009F4BECF983021F481E0B1
:101370008093F10000CF993009F0FDCE837009F021
:10138000B2CFE9E3F1E081E031E096E3219122235D
:1013900071F08093E9003093EB00DF0111972C91FD
:1013A0002093EC009093ED008F5F873079F78EE704
:1013B0008093EA001092EA008F898093D101DBCEFE
:1013C0008B8D9C8D1092E9001092C3011092C20186
:1013D0009093C1018093C001898D811192C08E8943
:1013E0009D89913A49F4813209F07DCF47E050E080
:1013F00064E071E080E0B3CF913209F074CF8332C2
:1014000069F48F89988DB0E0A0E0809300019093FB
:101410000101A0930201B0930301ADCE803269F4C3
:101420008091E80082FFFCCF67E084E091E00E94B9
:1014300034038BEF8093E8009ECE823209F09BCE7E
:101440008F8980930B01EEEFFFE7859194918B3F9D
:101450009C4D51F1E0E0F8E080910401909105018C
:10146000A0910601B0910701803B9440A105B10510
:10147000F1F480910B0180FD1AC0EE3F8AE0F8077D
:1014800089F587E797E79183808380916000809357
:10149000C40188E19BE00FB6F894A89580936000A2
:1014A0000FBE9093600067CEEEEFFAE0D5CF80815B
:1014B00091818737974709F05ECEA89580916000AB
:1014C0008861809360008091C40180936000EE3F4A
:1014D0002AE0F20789F08091FE0A9091FF0A918339
:1014E000808349CE808191818737980751F290930C
:1014F000FF0A8093FE0AC5CF1092FF0A1092FE0ADF
:101500003ACE0E944103DC0112960D911C91011507
:10151000110509F4E8CED801ED91FC910190F0811C
:10152000E02DBE016B5E7F4FC8010995811123CE6E
:10153000F80100851185EBCF181619060CF41BCEA7
:10154000D2CEF1E0FF12BECE62EF70E004CFCF93B7
:101550001092D9011092D80188EE93E0A0E0B0E09B
:101560008093DA019093DB01A093DC01B093DD015D
:101570008DE491E09093D7018093D6018FEF9FEF98
:101580009093E3018093E2018BE691E090934E0209
:1015900080934D0280914502811113C01092400248
:1015A00010923F0287E891E09093420280934102BB
:1015B00080E590E0909344028093430281E0809321
:1015C00045028091370281112AC0C1E0C0932A02EE
:1015D000C0932B0280E392E090932D0280932C0223
:1015E00010922F0210922E028FE591E09093270225
:1015F000809326021092320210923102109234022D
:1016000010923302C0933502C093360281EC80936E
:1016100030020E9441030E941701C0933702E091FB
:101620003102F09132023097B9F48FE392E0909357
:1016300032028093310280913302909134022091E2
:10164000430230914402820F931F9093340280939F
:101650003302CF910895FC01808191810097D9F7E1
:101660008FE392E091838083E6CFCF93DF93CDB772
:10167000DEB7A4970FB6F894DEBF0FBECDBF789447
:1016800084B5826084BD84B5816084BD85B5826087
:1016900085BD85B5816085BD80916E008160809338
:1016A0006E001092810080918100826080938100A1
:1016B00080918100816080938100809180008160B1
:1016C000809380008091910082608093910080914E
:1016D000910081608093910080919000816080935F
:1016E00090008091C10084608093C1008091C1000E
:1016F00082608093C1008091C10081608093C100AD
:101700008091C30081608093C3008091C00082609B
:101710008093C0008091C20081608093C20080915C
:101720007A00846080937A0080917A00826080934E
:101730007A0080917A00816080937A0080917A00AB
:10174000806880937A001092D1011092C7011092A4
:10175000C6018091D70081608093D70080EA809392
:10176000D80089B5806189BD89B5826089BD09B419
:1017700000FEFDCF61E070E080E090E00E94D001CB
:101780008091D8008F7C80618093D8008091E000A8
:10179000807F8093E0008091E1008E7E8093E10065
:1017A0008DE08093E200559A209A8FEF9FEF9093FF
:1017B000E3018093E20180E791E00E94CA058FE790
:1017C00091E00E9479058DE691E00E94790590E014
:1017D00080E00E942612863A09F07DC0BCE18B2E83
:1017E000B1E09B2E14E1A12E11E0B12E00E1C02E3C
:1017F00001E0D02E8CE0E82E81E0F82E01E010E030
:10180000B401C8010E942706B501C80102960E94D2
:101810002706B601C80104960E941D06B701C8013B
:1018200005960E941D060A5F1F4F22E0820E911C42
:1018300032E0A30EB11C4FEFC41AD40A5FEFE51AD1
:10184000F50A09311105E1F6EFE4F2E08FE0DF017E
:101850001D928A95E9F74FE050E0BF018DE492E0D8
:101860000E942205412C512CA0E86A2EAFEB7A2E63
:1018700086ED91E00E944404892B09F4A2C01E86E3
:101880001D86188A1F861A8A198ACE010D960E9413
:1018900095060E94E00397FD21C08A309105F1F082
:1018A00089831A8209891A890F5F1F4FB801CE01F7
:1018B0000D960E945B06882361F32D853E858989FC
:1018C0009A89BE016F5F7F4F820F931F0E94EF15B1
:1018D0001A8B098BDECF0E945B07B6CFCD84DE84E6
:1018E000C114D10439F009891A897601011511054D
:1018F00009F003C166E871E0CE010D960E9446062C
:10190000882309F430C16CE1862E61E0962E74E1E3
:10191000A72E71E0B72EE0E1CE2EE1E0DE2EFCE056
:10192000EF2EF1E0FF2E10E000E087E991E00E9449
:10193000CA05C8010E94DF058AE891E00E94CA0535
:10194000F401819191914F010E940F068EE991E07F
:101950000E94CA05C8010E94DF058AE891E00E9442
:10196000CA05D5018D919D915D010E940F068CE8FD
:1019700091E00E94CA05C8010E94DF058AE891E053
:101980000E94CA05F60181916F010E94CC0580E991
:1019900091E00E94CA05C8010E94DF058AE891E033
:1019A0000E94CA05D7018D917D010E94CC050F5F71
:1019B0001F4F0430110509F0B8CFCE010D960E94DB
:1019C00013078091C9019091CA019C012F5F3F4F7D
:1019D0003A8F298F223331050CF058C23093CA0157
:1019E0002093C90145E451E058A34F8F84E391E06F
:1019F000988F8F8BA4E2B1E0BC8BAB8BECE1F1E074
:101A0000FE8FED8F24E131E03C8F2B8F312C212C88
:101A1000AF8DB8A1DD90B8A3AF8F8D2D0E94870147
:101A20009E8B8D8BE98DFA8DF2970CF454C00D2DA1
:101A300010E09801245A3E4F7901F9012491035C8A
:101A40001E4FF80184918823C9F090E0880F991FF8
:101A5000FC01E15DFE4FA591B491FC01EF5DFE4FED
:101A6000859194914FB7F8945C91322F309535233E
:101A70003C93DC013C91232B2C934FBF83EC90E0F3
:101A80000197F1F78D2D0E948701F701E490F8018D
:101A900004910023C1F010E0000F111FF801E15D77
:101AA000FE4F25913491F801EF5DFE4FA591B49161
:101AB0005FB7F894F9014081E0944E2140832C9166
:101AC000E222EC925FBF21E0863B93400CF020E0E5
:101AD000AF89B88D2C93EF89F88D8191F88FEF8BBA
:101AE0008111D9C1AB89BC894D925D926D927C9276
:101AF000139710E000E0A2C275015701BFEFAB1AC7
:101B0000BB0AF7018081082E000C990B0E94F61089
:101B1000892B91F7015011090C0D1D1DD8018C91D5
:101B2000082E000C990B0E94F610892B31F00E152F
:101B30001F0518F001501109F1CF0F5F1F4FA801C9
:101B40004E195F095A8B498BCE14DF0420F4B7017C
:101B5000C6010E94D215ED85FE8589899A89E80F14
:101B6000F91F1082C7CE49895A894430510508F4BB
:101B700024CF8D859E8530E020E0FC01E20FF31F2D
:101B8000009721F41092C801E8ECF1E0B9016F5F11
:101B90007F4FE0810E2E000CFF0BF0973A9708F074
:101BA00093C04617570709F07DC037FD06CF2417AD
:101BB000350718F4009709F08BC01092C80188EC23
:101BC00091E0FC010081002E000C110B0053110963
:101BD0000430110508F0F1CE50E040E0BE01635F33
:101BE0007F4FCE0107960E94AD06C988DA88C114DE
:101BF000D10409F470C0AD84BE846DE370E0C5010A
:101C00000E94DB15009709F466C07C01EA18FB0806
:101C10001E141F040CF062C09601A7014F5F5F4FB6
:101C2000BE01635F7F4FCE0101960E94AD0667E95A
:101C300071E0CE0107960E944606882311F0F7FC5A
:101C400058C06EE971E0CE0107960E9446068111E8
:101C500070C064E971E0CE0107960E9446068111CA
:101C6000A0C06BE971E0CE0107960E94460688236A
:101C700009F4BAC0CE0101960E943B0697FDAEC0A2
:101C80006115F4E07F07810591050CF0AAC0C80139
:101C9000880F991F9C012C5E3E4F7901D9016D93ED
:101CA0007C9359C06417750728F4FC01E60FF71FF1
:101CB000009721F41092C801E8ECF1E0E081ED33E7
:101CC00009F473CF9B0159CF46175707D9F775CE43
:101CD000820F931F76CFEE24EA94FE2C1A8219828B
:101CE0001C821B821E821D82CE0101960E949506D7
:101CF0009ECFF801EB5BFE4F80810E948701980127
:101D0000220F331FA901445E5E4F7A01DA018D93E1
:101D10009C93F801EE0FFF1FEE0FFF1FEC5DFE4FCF
:101D200040825182628273820E945B0787E991E060
:101D300021C0F7FE8ECFF801EB5BFE4F80810E9441
:101D400087019801220F331FA9014C5E5E4F7A0173
:101D5000DA018D939C93F801EE0FFF1FEE0FFF1F2A
:101D6000EC5DFE4F40825182628273820E945B076B
:101D70008EE991E00E94CA05C8010E94DF058AE849
:101D800091E00E94CA05F701808191810E940F06AF
:101D9000CE0101960E941307CE0107960E941307F9
:101DA0000CCECE0101960E943B0697FD11C0611535
:101DB000F4E07F078105910574F4C801880F991F2D
:101DC0009C01245E3E4F7901D9016D937C93A1CF94
:101DD00070E060E0F2CF6FEF73E0EFCF70E060E0B3
:101DE00056CF6FEF73E053CF6CE871E0CE010796EA
:101DF0000E944606882339F1CE0101960E943B06D7
:101E000097FD1DC06333710581059105D4F49801D8
:101E1000205F3E4F7901D9016C930E945B078CE8EB
:101E200091E00E94CA05C8010E94DF058AE891E09E
:101E30000E94CA05F70180810E94CC05A9CF60E00D
:101E4000E6CF62E3E4CF60E971E0CE0107960E943D
:101E50004606882309F49CCFCE0101960E943B06DA
:101E600097FD10C063337105810591056CF49801ED
:101E7000245F3E4F7901D9016C930E945B0780E992
:101E800091E0CFCF60E0F3CF62E3F1CF1092CA01CF
:101E90001092C901A7CDED8DFE8DC080D180AB8D94
:101EA000BC8D0D911C91ED89FE89B601EC15FD05E7
:101EB0002CF0BF010E171F070CF4B801072E000C01
:101EC000880B990B0E9406114B015C0120E030E069
:101ED000A901AB89BC896D917D918D919C910E94E6
:101EE000FF1087FF06C0EB89FC8980829182A28265
:101EF000B3822AE939E949E55FE3AB89BC896D9191
:101F00007D918D919C910E94651169A37AA38BA309
:101F10009CA32AE939E949E15EE3C501B4010E94C5
:101F200065119B01AC0169A17AA18BA19CA10E94C2
:101F3000CF12EB89FC8960837183828393830E9433
:101F4000AD136C157D050CF4FDC0061717070CF4D6
:101F5000B8010D2C000CEE08FF089B01770F440B15
:101F6000550B2C193D094E095F09AFEFB3E00E94F4
:101F70005B12012E000C220B330BA90198012C19C6
:101F80003D094E095F090E943C126901F101E05FC1
:101F9000FE4F608170E090E080E00E94061120E03A
:101FA00030E048EC52E40E943B1320E030EC4FE775
:101FB00054E40E9465110E94AD134B01C616D7066A
:101FC0000CF497CDF101E45FFE4F608170E090E08A
:101FD00080E00E94061120E030E048EC52E40E94CC
:101FE0003B1320E030EC4FE754E40E9465110E945F
:101FF000AD13EFEFF3E0E61BF70BEC15FD050CF46A
:10200000A3C0092C000CAA08BB080D2C000CEE087C
:10201000FF08A7019601281939094A095B09AFEFA2
:10202000B3E00E945B129F01FF0F440B550B281970
:1020300039094A095B090E943C1289012EEF3FEFE2
:10204000D8010E94E3132FEF33E040E050E00E94FC
:102050003C12DA01C9018F5F9F47A109B109F2E083
:102060002F16310409F47CC023E02216310409F450
:102070007CC031E02316310409F469C090935A0200
:102080008093590282EA91E00E94CA05C1010E9430
:10209000DF058AE891E00E94CA058D899E890E9429
:1020A000DF0586EA91E00E94CA05C1010E94DF05B2
:1020B0008AE891E00E94CA05C8010E94DF058BEA08
:1020C00091E00E94CA05C1010E94DF058AE891E003
:1020D0000E94CA05EF89F88D3197808190E00E94B7
:1020E000DF054FEF241A340A8B899C8904969C8B58
:1020F0008B8BAD8DBE8D1296BE8FAD8FEB8DFC8D13
:102100003296FC8FEB8FF4E02F16310409F080CC6F
:102110008DE691E00E9479054FE050E06FE472E0B7
:102120008DE492E00E94220565E070E080E090E09E
:102130000E94D00180E090E0892B09F499CB0E94A5
:10214000000096CBB60105CF0FEF13E077CF909349
:1021500056028093550281EB91E00E94CA0592CF0E
:102160009093540280935302F6CF90935802809339
:102170005702F1CF1F93FC0199278827BC01E894EF
:1021800011911032E9F3193010F01E30C8F31B32F0
:1021900051F01D3249F4689406C00E94E110610FAD
:1021A000711D811D911D119110531A30B0F33EF431
:1021B00090958095709561957F4F8F4F9F4F1F91A0
:1021C0000895592F482F372F262F660F771F881F06
:1021D000991F660F771F881F991F620F731F841F37
:1021E000951F660F771F881F991F089591110C94F2
:1021F000D211803219F089508550C8F708950E9495
:10220000411108F481E00895E89409C097FB3EF479
:1022100090958095709561957F4F8F4F9F4F992333
:10222000A9F0F92F96E9BB279395F69587957795B1
:102230006795B795F111F8CFFAF4BB0F11F460FF71
:102240001BC06F5F7F4F8F4F9F4F16C0882311F0C9
:1022500096E911C0772321F09EE8872F762F05C0DD
:10226000662371F096E8862F70E060E02AF09A9578
:10227000660F771F881FDAF7880F9695879597F96D
:102280000895990F0008550FAA0BE0E8FEEF161607
:102290001706E807F907C0F012161306E407F5075A
:1022A00098F0621B730B840B950B39F40A2661F0CE
:1022B000232B242B252B21F408950A2609F4A14071
:1022C000A6958FEF811D811D08950E9478110C94B1
:1022D000EC110E94DE1138F00E94E51120F09523E8
:1022E00011F00C94D5110C94DB1111240C942012D4
:1022F0000E94FD1170F3959FC1F3950F50E0551F9B
:10230000629FF001729FBB27F00DB11D639FAA274A
:10231000F00DB11DAA1F649F6627B00DA11D661F99
:10232000829F2227B00DA11D621F739FB00DA11DBA
:10233000621F839FA00D611D221F749F3327A00D74
:10234000611D231F849F600D211D822F762F6A2F10
:1023500011249F5750409AF0F1F088234AF0EE0F75
:10236000FF1FBB1F661F771F881F91505040A9F7A2
:102370009E3F510580F00C94D5110C9420125F3FC4
:10238000E4F3983ED4F3869577956795B795F795DE
:10239000E7959F5FC1F7FE2B880F911D9695879556
:1023A00097F9089599278827089597F99F6780E8F6
:1023B00070E060E008959FEF80EC089500240A9497
:1023C0001616170618060906089500240A94121610
:1023D0001306140605060895092E0394000C11F443
:1023E000882352F0BB0F40F4BF2B11F460FF04C0F0
:1023F0006F5F7F4F8F4F9F4F089557FD9058440F49
:10240000551F59F05F3F71F04795880F97FB991F53
:1024100061F09F3F79F08795089512161306140610
:10242000551FF2CF4695F1DF08C01616170618069D
:10243000991FF1CF86957105610508940895E89478
:10244000BB2766277727CB0197F90895F999FECF27
:1024500092BD81BDF89A992780B50895262FF999E4
:10246000FECF1FBA92BD81BD20BD0FB6F894FA9A77
:10247000F99A0FBE01960895052E97FB1EF400945D
:102480000E94531257FD07D00E949D1207FC03D0F3
:102490004EF40C94531250954095309521953F4F32
:1024A0004F4F5F4F089590958095709561957F4F40
:1024B0008F4F9F4F08950E94BF12A59F900DB49F0C
:1024C000900DA49F800D911D112408952F923F928D
:1024D0004F925F926F927F928F929F92AF92BF9234
:1024E000CF92DF92EF92FF920F931F93CF93DF93E0
:1024F000CDB7DEB7CA1BDB0B0FB6F894DEBF0FBE3D
:10250000CDBF09942A88398848885F846E847D8489
:102510008C849B84AA84B984C884DF80EE80FD808B
:102520000C811B81AA81B981CE0FD11D0FB6F89401
:10253000DEBF0FBECDBFED010895A1E21A2EAA1B8A
:10254000BB1BFD010DC0AA1FBB1FEE1FFF1FA21763
:10255000B307E407F50720F0A21BB30BE40BF50B60
:10256000661F771F881F991F1A9469F760957095E9
:10257000809590959B01AC01BD01CF010895A29F6C
:10258000B001B39FC001A39F700D811D1124911D47
:10259000B29F700D811D1124911D08955058BB27C5
:1025A000AA270E94E6120C94EC110E94DE1138F06A
:1025B0000E94E51120F039F49F3F19F426F40C94A1
:1025C000DB110EF4E095E7FB0C94D511E92F0E9486
:1025D000FD1158F3BA17620773078407950720F0B7
:1025E00079F4A6F50C941F120EF4E0950B2EBA2F79
:1025F000A02D0B01B90190010C01CA01A001112409
:10260000FF27591B99F0593F50F4503E68F11A16B4
:10261000F040A22F232F342F4427585FF3CF469545
:1026200037952795A795F0405395C9F77EF41F1667
:10263000BA0B620B730B840BBAF09150A1F0FF0F31
:10264000BB1F661F771F881FC2F70EC0BA0F621F1D
:10265000731F841F48F4879577956795B795F7950D
:102660009E3F08F0B0CF9395880F08F09927EE0FA2
:102670009795879508950E944F130C94EC110E9432
:10268000E51158F00E94DE1140F029F45F3F29F077
:102690000C94D51151110C9420120C94DB110E9452
:1026A000FD1168F39923B1F3552391F3951B550B55
:1026B000BB27AA2762177307840738F09F5F5F4F15
:1026C000220F331F441FAA1FA9F335D00E2E3AF054
:1026D000E0E832D091505040E695001CCAF72BD06C
:1026E000FE2F29D0660F771F881FBB1F26173707BD
:1026F0004807AB07B0E809F0BB0B802DBF01FF27EF
:1027000093585F4F3AF09E3F510578F00C94D511E5
:102710000C9420125F3FE4F3983ED4F386957795AE
:102720006795B795F7959F5FC9F7880F911D9695A7
:10273000879597F90895E1E0660F771F881FBB1F03
:10274000621773078407BA0720F0621B730B840BB0
:10275000BA0BEE1F88F7E09508950E94B4136894B1
:10276000B1110C94201208950E94051288F09F5711
:1027700098F0B92F9927B751B0F0E1F0660F771FA5
:10278000881F991F1AF0BA95C9F714C0B13091F09B
:102790000E941F12B1E008950C941F12672F782F2A
:1027A0008827B85F39F0B93FCCF386957795679560
:1027B000B395D9F73EF490958095709561957F4FCC
:1027C0008F4F9F4F08950E94BF12B7FF0895821B3D
:1027D000930B0895EE0FFF1F0590F491E02D0994DF
:1027E0000F931F93CF93DF938230910510F482E013
:1027F00090E0E0916002F091610230E020E0B0E012
:10280000A0E0309799F42115310509F44AC0281B3E
:10281000390B24303105D8F58A819B81611571050A
:1028200089F1FB0193838283FE0111C040815181B4
:102830000281138148175907E0F04817590799F4A6
:10284000109761F012960C93129713961C93329680
:10285000CF01DF91CF911F910F91089500936002F6
:1028600010936102F4CF2115310551F0421753073F
:1028700038F0A901DB019A01BD01DF01F801C1CFE8
:10288000EF01F9CF9093610280936002CDCFFE01FA
:10289000E20FF31F819391932250310939832883EA
:1028A000D7CF20915E0230915F02232B41F420911B
:1028B00041013091420130935F0220935E022091EA
:1028C0003F01309140012115310541F42DB73EB74C
:1028D0004091430150914401241B350BE0915E026D
:1028E000F0915F02E217F307A0F42E1B3F0B2817AD
:1028F000390778F0AC014E5F5F4F2417350748F079
:102900004E0F5F1F50935F0240935E02819391933D
:102910009FCFF0E0E0E09CCFCF93DF930097E9F00A
:10292000FC01329713821282A0916002B091610281
:10293000ED0130E020E01097A1F420813181820F79
:10294000931F20915E0230915F022817390709F02A
:1029500061C0F0935F02E0935E02DF91CF91089532
:10296000EA01CE17DF07E8F54A815B819E01411538
:102970005105B1F7E901FB83EA8349915991C40FED
:10298000D51FEC17FD0761F4808191810296840FB9
:10299000951FE90199838883828193819B838A8330
:1029A000F0E0E0E012968D919C9113970097B9F5B5
:1029B0002D913C911197CD010296820F931F20918A
:1029C0005E0230915F022817390739F6309751F5CA
:1029D0001092610210926002B0935F02A0935E02B7
:1029E000BCCFD383C28340815181840F951FC81708
:1029F000D90761F44E5F5F4F88819981480F591F55
:102A0000518340838A819B81938382832115310581
:102A100009F0B0CFF0936102E09360029ECFFD0118
:102A2000DC01C0CF13821282D7CFB0E0A0E0EBE18F
:102A3000F5E10C9468128C01009751F4CB010E94CF
:102A4000F0138C01C801CDB7DEB7E0E10C9484121D
:102A5000FC01E60FF71F9C0122503109E217F30732
:102A600008F49DC0D901CD91DC911197C617D70705
:102A700098F0C530D10530F3CE010497861797073B
:102A800008F3C61BD70B2297C193D1936D937C9308
:102A9000CF010E948C14D6CF5B01AC1ABD0A4C0149
:102AA0008C0E9D1EA0916002B0916102512C412CB0
:102AB000F12CE12C109731F580915E0290915F022C
:102AC0008815990509F05CC04616570608F058C0ED
:102AD00080913F0190914001009741F48DB79EB7DE
:102AE0004091430150914401841B950BE817F9076D
:102AF00008F055C0F0935F02E0935E02F901718324
:102B00006083A0CF8D919C91119712966C90129733
:102B100013967C901397A815B90559F56C0142E0FE
:102B2000C40ED11CCA14DB0420F1AC014A195B09A4
:102B3000DA011296159780F0628273825183408386
:102B4000D9016D937C93E114F10471F0D7011396D0
:102B5000FC93EE93129776CF22968C0F9D1FF9016E
:102B600091838083F301EFCFF0936102E0936002E1
:102B700069CF4816590608F42C017D01D3019ACF7C
:102B8000CB010E94F0137C01009749F0AE01B8011F
:102B90000E94D215C8010E948C14870153CF10E007
:102BA00000E050CFFB01DC0102C001900D924150CA
:102BB0005040D8F70895FC018191861721F08823B1
:102BC000D9F7992708953197CF010895FB01DC01CA
:102BD0008D91019080190110D9F3990B0895FB0193
:102BE000DC0101900D920020E1F70895F894FFCFE9
:102BF000FFFFFFFF00E100000000000002020202F0
:102C00000202020299039903990399036600660080
:102C100066006600000080BF000080BF000080BF2B
:102C2000000080BF0101010100C18081000000009F
:102C3000006202800012131415000000009C03863D
:102C400003BD03B2034404C2032004000000005E7D
:102C500004D7049C0481040000000022050D0A0032
:102C6000706E65756D617469635F686964200031B9
:102C7000322E312E3000474554003D00445A4E005C
:102C8000445A58005345544D494E005345544D4104
:102C90005800524157002C4F5554002C434F4E4E74
:042CA000002C000004
:00000001FF
